:020000040000FA
:04000000FEEF3FF0E0
:100600000000CA84CA50FC0B0109CA6ED3508F0B7C
:100610001009D36EBD50F00B0C09BD6E946A8B6A45
:100620009B0ECB6E030EBE6E300EBD12290E036EF6
:10063000940EE82EFED7032EFCD700D0010E076ED5
:10064000000E066E000E056E000E81B0010E086EE3
:100650000704D8A42EEF03F030EF03F058EF03F0B7
:100660000850D8A436EF03F038EF03F058EF03F04A
:10067000D00EE82EFED7000081B041EF03F043EF2B
:1006800003F058EF03F0010E0524036E000E062060
:10069000046E030E0314056E066A81A052EF03F088
:1006A00054EF03F04DEF03F0D00EE82EFED700001C
:1006B00008C007F0000E0A6E0F0E096E095079ECA3
:1006C00003F0FA0E00D0E82EFDD7094A0A2A0ABE26
:1006D00073EF03F00A5009E13F0E095CD8A073EFF5
:1006E00003F075EF03F05EEF03F024EF03F0FEEF8D
:1006F0003FF0026E0240E8423F0BBE6E02C001F0C6
:10070000030E0116013ABD500118CF0B0118BD6E42
:080710001200000101EF03F0EB
:047FFC0089EF03F016
:020000040020DA
:08000000FFFFFFFFFFFFFFFF00
:020000040030CA
:0E000000FF081B1EFF8181FF0FC00FE00F40A5
:00000001FF
